:4000000000800020110000007D0A00007D0A000008B5044B1A6803F53F5302331A6000F04DFD00BFFA46004010B5054C237833B9044B13B10448AFF300800123237010BD1F
:400040008089FF1F0000000054730000084B10B51BB108490848AFF300800848036803B910BD074B002BFBD0BDE81040184700BF000000008489FF1F54730000C880FF1FF4
:4000800000000000104B1A8844F620639A4213D90D4B5A8844F620639A420FD90A4B9A8844F620639A420BD9074BDA8844F620639A4207D80020704700207047002070475E
:4000C0000020704701207047EC89FF1F38B500F083FF002000F088FFA0B100F097FF80B201F090FF0E4902F099F84FF07F5101F0E1FF054601F0CCFB02460B46094802F0A6
:4001000029FC00E000254FF001044FF08141284602F06EF908B94FF0000404F0010038BD00C04C446073000070B50A2540F2DB14002626B9012000F077FF012603E000204D
:4001400000F072FF00260CB94FF0FF35B4F5EE7F00DB0A25632C01DC002D04DCC72C05DC002D02DC02E0012500E00325C82C01DD002D04DB642C07DD002D05DA02E06FF099
:40018000090501E06FF00405641B204600F068FDCFE700BF2DE9F04FADB002AB83E80300154628242246002122A802F085FB2246002118A802F080FB224600210EA802F019
:4001C0007BFB2246002104A802F076FB00273C465BE0092F55DC02A800F0B6FA2CAB03EB8706BDF80A0001F011FF56F8281C01F059FE834646F8280CBDF80C0001F006FF7C
:4002000056F8501C01F04EFE814646F8500CBDF8080001F0FBFE56F8781C01F043FE804646F8780CBDF80E0001F0F0FE56F8A01C01F038FE824646F8A00C5946286801F07E
:4002400031FE28604946686801F02CFE68604146A86801F027FEA8605146E86801F022FEE860404601F014FB80468946504601F00FFBCDE9000142464B461D4802F06AFB58
:4002800001376434642000F0EBFC40F24C439C429FDD1849286801F0C1FF28601549686801F0BCFF68601349A86801F0B7FFA8601049E86801F0B2FFE860C821192000F06C
:4002C0004BFAFF21192000F047FA0A21192000F043FA3221192000F03FFA6421192000F03BFA9621192000F037FA2DB0BDE8F08F6C730000000020412DE9F04F8BB062B60C
:4003000000F076FD00F05AFE8F4802F06BFB002000F08AFE62B68D4800F02CFD00F004FA012000F001FD00274FF0000940F6E44B40F6B83A4D46C84641F2883401F02AF9A8
:400340000646002840F0EF80B9F1000F12D1804B05AA18685968FFF71DFF059802F070F81FFA80FA069802F06BF81FFA80FB4FF001094E46002E40F0D680B9F1000F00F0B6
:40038000D2804FF4FA7000F06BFC714800F0DCF9FFF778FE88B900F017F90121642000F017F96B4800F0D0F9FFF76CFE0028F2D00021084600F00CF9012616B1B3E0002556
:4003C000039F634E304600F0BFF97088CAEB000001F01CFE01465F4801F020FF0390B088CBEB000001F012FE01465A4801F016FF0146039801F054FD03904FF0854101F0B8
:4004000059FE06463946039801F04AFD524901F051FE0146304601F045FD07464F4901F041FD06464D4902F001F800B14B4E39464A4801F035FD0746484901F0F7FF00B127
:40044000464F0021384601F0D3FF00B100270021304601F0CDFF00B100263946304601F0E5FF00B13D4E3946304601F0C1FF00B13A4F384601F0E4FFC7B2304601F0E0FF8B
:40048000C6B2334BDA8844F636239A4202DDFFF7F9FD68B12E4B1A8844F636239A420CDDFFF7F0FD60B900210120FF273E4609E001210020FF273E4604E00021084601E02D
:4004C00000210846012300933B46324600F094F80135EDB2142D7FF673AFFFF7D3FD18B108F101085FFA88F8B8F1020F7FF667AF0021084600F06CF8002611E002F07AFAC5
:40050000174A80FB0223C118C317C3EBE111C1EB0121411A0131C9B2322000F01DF90136632EEBDD039F41F287339C4203D9FFF7CDFD30B90024142000F092FB1434A4B244
:40054000FCE6FFF7F1FD00BF7873000021060000EC89FF1F007EBB460000FA4300007F4381808080F8B50C46174600250BE023780A2B02D10D2000F05FFC661C207800F041
:400580005BFC01353446BD42F1DB3846F8BD00BFF8B50F461446002612E000F037FC054670B100F049FC01360D2D03D10A2000F043FC0A257B1C3D70013C0A2D02D01F4683
:4005C000002CEADC3046F8BD08B500F039FB08BD38B504460D46002000F08EFB002000F097FB204600F0D8FA204600F0DBFA284600F036FB38BD00BF70B50E4615461C46A7
:4006000000F07AFB304600F083FB284600F0C4FA204600F0C7FA049800F022FB70BD00BFF8B500F095FE044600F018FE074600F09BFD064600F036FF054614F0400F09D06C
:4006400000F08CFE044600F095FE201A80B2354B988003E000F082FE324B988017F0400F09D000F001FE044600F00AFE201A80B22C4BD88003E000F0F7FD2A4BD88016F012
:40068000400F09D000F076FD044600F07FFD201A80B2244B188003E000F06CFD214B188015F0400F09D000F003FF044600F00CFF201A80B21B4B588003E000F0F9FE194B0A
:4006C00058800C2000F0B0FE012000F0A1FE0C2000F0C2FE012000F0B3FE0C2000F01EFD012000F00FFD0C2000F048FF012000F039FF0A2000F0CAFA022000F095FE022065
:4007000000F0AAFE022000F009FD022000F036FF00F01EFE00F0A2FD00F026FD00F0C2FEF8BD00BF9C89FF1F08B5064800F022FB00F060FE00F0E4FD00F068FD00F004FF2E
:4007400008BD00BF210600000246024B03CB1060516070479C89FF1F70B505460C464E0800F0C2FC304600F09FFC204600F096FC284600F075FA00F083FC70BDFEE700BF94
:40078000F0B40022174611E050F82760F3B226F0FF0608E001EB420511F812406D78A5550132013BDBB2002BF4D10137242FEBD9F0BC704708B50A46002102F07DF808BD49
:4007C00038B50122304B1A801823304A1370192502321580023213701D21023211800232137077210232118002321370EF21023211800232137040F2AF4102321180023269
:4008000013700222224B1A7008224FF040231A70032103F5007319701E4B1B78DBB21E490B701E4B1A8041F25122023B1A8000240CE01B4B1B7803F0010343EA440404F058
:4008400003044FF4F07000F0AFFE013D0DB1032CEFD115B90320FFF791FF124B4FF480721A8007221A7000220F490A704820023108701A700222033B1A700C4A137843F05F
:400880003F03137038BD00BF80400040824000400043004008010049A146004022420040254200400440004006400040A2430040F8B5184B1B78DBB2174E3478E4B2174F0A
:4008C0003D78EDB203F00701154A11701B090132137044F00303337045F003033B708022104B1A704023104A137002321370082302F21D2213702021033211702D321370F4
:400900000A2000F0C3F93D7034704422074B1A70F8BD00BFCF010049F8460040F94600406E5800402D510040095900407658004008B501F04BFF08BD38B572B63A4A13786F
:4009400043F00403137000240CE0384D630019194A0011462A44084691882858FFF72AFF0134E4B2072CF0D900240BE02F49A3001819420088180622416B006BFFF7D8FF6B
:400980000134E4B2002CF1D029494FF09040FFF7F7FE284A137843F0020313701032137843F002031370244C237843F040032370A2F58632513A137843F010031370082267
:4009C0001E491F48FFF7B4FF0A221E491E48FFF7AFFF08221D491E48FFF7AAFF08221D491D48FFF7A5FF0A221C491D48FFF7A0FF08221C491C48FFF79BFF1C4A137843F08D
:400A0000080313701A4D61232B70FFF7D9FE81232B700122174B1A70FFF74AFF0E2221461548FFF785FF38BDE8460040807300009400004803500140A04300408C08004815
:400A40000251004094080048C0510040A0080048F2510040A808004812510040B008004820510040BC08004832510040224300400048004004000840B043004008B501F0C6
:400A800077FE03680C2B00D1FEE7FEE708B5094B1A681044084BC31AB3F5006F02DC054B186005E001F064FE0C2303604FF0FF32104608BDCC80FF1F088AFF1F08B5104E26
:400AC000104D16E029686B68AC68002204E051F8040B43F8040B0432A242F8D1E868002203E0002143F8041B04328242F9D11035013E002EE6D101F041FEFFF7FDFBFEE7A0
:400B0000010000006C75000008B5104A104B1A60104A136843F40073136000230AE0032B03D80D4A52F8231000E00C490C4A42F8231001332F2BF2D90A4B1A780A4B1A70F4
:400B4000074A0A4B1A60FFF7F7FE08BD0004FA050CED00E014ED00E0000000007D0A00000080FF1FBC760040C080FF1F08ED00E0024A137843F0800313707047776500403B
:400B8000014B1870704700BF07650040014B1870704700BF47650040014B1870704700BF27650040014B1870704700BF37650040014B1870704700BF87650040014B18787B
:400BC000704700BF67650040014B1878704700BF5765004008B501E0FFF7F6FFFFF7EEFF10F0100FF8D108BD10B5134A137803F0C00343F009031370104C237843F00103B9
:400C00002370FF20FFF7BCFFFF20FFF7BFFF2820FFF7C2FF2820FFF7C5FF0020FFF7C8FF00F0CAFC237843F01003237000F0C8FCFFF7D0FF10BD00BF776500409765004019
:400C400008B5054B1B7823B9FFF7CEFF0122024B1A70FFF78DFF08BDAC89FF1F01BE704710B5044605E0084B186800F09DFCA4F50044B4F5004FF6D8034B586800FB04F03B
:400C800000F092FC10BD00BFD080FF1F08B5034B1B7A00FB03F000F087FC08BDD080FF1F70B504460E46074B1D681F2802D90020FFF7D4FF04F01F04103455F8240045F8DA
:400CC000246070BD08ED00E038B504460D46072902D90020FFF7C2FF1F2C02D90020FFF7BDFF04F01F0000F1604000F564406D01EDB2057038BD00BF044A137803F07F0349
:400D0000C001C0B218431070704700BF30510040044A137803F0FE0300F0010018431070704700BFF0510040044A137803F0DF03400100F02000184310707047205100409C
:400D4000014B1B685864704708ED00E04001C0B2014B1870704700BF01E400E00222014B1A60704700E100E00222014B1A60704780E100E010B50446FFF7F6FF2046FFF700
:400D8000DFFF0720FFF7E2FFFFF7E8FF10BD00BF7222084B1A702022A3F580731A700622A1331A70472210331A700022B03B1A70704700BF8865004010B500F0FDFB044639
:400DC0000A4A137843F020031370A2F58072137843F0100313700132137843F01003137000F02EF9204600F0EBFB10BD9865004008B5054B1B7823B9FFF7CAFF0122024BCF
:400E00001A70FFF7D9FF08BDAD89FF1F084B1B78DBB213F0200F06D0064A1078C0B213F01E0F02D17047002070470020704700BF686400404B650040034B1B7813F0040F62
:400E4000FAD1024B18707047696400404964004008B50A280FD00C2802D0082806D102E04FF4805209E04FF4807206E00020FFF7F5FE002201E04FF480620021094B19800C
:400E800042F2107303FB02F303F6C413064A82FB0302DB17C3EBE223044A1360044B198008BD00BFF689FF1FAD8BDB68FC89FF1FF889FF1F10B500F07FFB04461E4A13784E
:400EC00043F0020313701032137843F002031370193A137843F0010313701032137843F00103137002F5AA521932137843F0030313700422114B1A70013B1A7802F0BF027E
:400F00001A701A7842F003021A700822053B1A700222A3F59753123B1A70094A137843F0080313700A20FFF7B1FE0122054B1A60204600F045FB10BDAB4300400E590040D0
:400F40002F5B004080E200E010B504460A280DD00C2802D0082804D101E0C42207E0442205E00020FFF77AFEC42200E08422034B1A702046FFF76CFF10BD00BF0A5900407B
:400F800008B5102000F06AF807210020FFF79CFE07490020FFF784FE064A137843F0060313700C20FFF7D0FF0022034B1A8008BD2510000009590040F489FF1F08B5054B59
:400FC0001B7823B9FFF7DCFF0122024B1A70FFF771FF08BDAF89FF1F024A137843F00103137070470859004010B5074B1B7813F0010401D10028F8D024B10120FFF746FEA9
:40100000014B1B78204610BD09590040034B188880B2034B1B88C01A00B27047A25B0040F889FF1F704700BF044A137803F0FD03400000F002001843107070472051004015
:40104000054A137843F0020313701032137843F002031370704700BFA2430040034B1A7800F0F80010431870704700BF82400040024A137843F080031370704776650040BB
:40108000024A137803F07F031370704776650040014B1870704700BF06650040014B1870704700BF46650040014B1870704700BF2665004008B50B4A137803F0C00343F0CA
:4010C000090313702032137843F001031370FF20FFF7DEFFFF20FFF7E1FF7F20FFF7E4FF08BD00BF7665004008B5054B1B7823B9FFF7E0FF0122024B1A70FFF7B9FF08BD0E
:40110000B089FF1F044A137803F0DF03400100F02000184310707047F0510040044A137803F0F10300F00E0018431070704700BF7D500040084A137843F002031370103250
:40114000137843F00203137002F65932137843F001031370704700BFA3430040014B1870704700BF0F4F0040014B1878704700BF0F4F0040014B188880B27047104F004079
:40118000014B1880704700BF104F0040014B188880B27047144F0040014B1880704700BF124F004008B5164A137803F0010313700232137803F0FC031370124B1A7802F08C
:4011C000CF021A701A7842F030021A701A7802F0F0021A701A7842F00F021A700A4A137843F00103137045F6BF50FFF7C9FF45F6BF50FFF7D1FF0820FFF7B0FF08BD00BFB3
:401200000C4F0040174F00400D4F004008B5054B1B7823B9FFF7C6FF0122024B1A70FFF789FF08BDB189FF1F084A137843F0080313701032137843F00803137002F671323E
:40124000137843F001031370704700BFA3430040014B1870704700BF274F0040014B1878704700BF274F0040014B188880B27047284F0040014B1880704700BF284F0040E8
:40128000014B188880B270472C4F0040014B1880704700BF2A4F004008B5164A137803F0010313700232137803F0FC031370124B1A7802F0CF021A701A7842F030021A7079
:4012C0001A7802F0F0021A701A7842F00F021A700A4A137843F00103137045F6BF50FFF7C9FF45F6BF50FFF7D1FF0820FFF7B0FF08BD00BF244F00402F4F0040254F004068
:4013000008B5054B1B7823B9FFF7C6FF0122024B1A70FFF789FF08BDB289FF1F084A137843F0040313701032137843F00403137002F66532137843F001031370704700BF72
:40134000A3430040014B1870704700BF1B4F0040014B1878704700BF1B4F0040014B188880B270471C4F0040014B1880704700BF1C4F0040014B188880B27047204F00404E
:40138000014B1880704700BF1E4F004008B5164A137803F0010313700232137803F0FC031370124B1A7802F0CF021A701A7842F030021A701A7802F0F0021A701A7842F050
:4013C0000F021A700A4A137843F00103137045F6BF50FFF7C9FF45F6BF50FFF7D1FF0820FFF7B0FF08BD00BF184F0040234F0040194F004008B5054B1B7823B9FFF7C6FF18
:401400000122024B1A70FFF789FF08BDB389FF1F044A137803F0EF03000100F01000184310707047C0510040044A137803F0F10300F00E0018431070704700BF6450004070
:40144000044A137803F0EF03000100F01000184310707047F0510040044A137803F0F10300F00E0018431070704700BF7C500040084A137843F0010313701032137843F0E8
:401480000103137002F64D32137843F001031370704700BFA3430040014B1870704700BF034F0040014B1878704700BF034F0040014B188880B27047044F0040014B188041
:4014C000704700BF044F0040014B188880B27047084F0040014B1880704700BF064F004008B5164A137803F0010313700232137803F0FC031370124B1A7802F0CF021A70F6
:401500001A7842F030021A701A7802F0F0021A701A7842F00F021A700A4A137843F00103137045F6BF50FFF7C9FF45F6BF50FFF7D1FF0820FFF7B0FF08BD00BF004F00403B
:401540000B4F0040014F004008B5054B1B7823B9FFF7C6FF0122024B1A70FFF789FF08BDB489FF1F044A137803F0EF03000100F0100018431070704730510040044A137887
:4015800003F0F10300F00E0018431070704700BF1C500040024B1878C0F38000704700BF21510040000000000230800803D000BF01380046FCD17047EFF3108072B6704771
:4015C00080F31088704700BF81F0004102E000BF83F0004330B54FEA41044FEA430594EA050F08BF90EA020F1FBF54EA000C55EA020C7FEA645C7FEA655C00F0E2804FEA46
:401600005454D4EB5555B8BF6D420CDD2C4480EA020281EA030382EA000083EA010180EA020281EA0303362D88BF30BD11F0004F4FEA01314FF4801C4CEA113102D0404284
:4016400061EB410113F0004F4FEA03334CEA133302D0524263EB430394EA050F00F0A780A4F10104D5F1200E0DDB02FA0EFC22FA05F2801841F1000103FA0EF2801843FAD0
:4016800005F359410EE0A5F120050EF1200E012A03FA0EFC28BF4CF0020C43FA05F3C01851EBE37101F0004507D54FF0000EDCF1000C7EEB00006EEB0101B1F5801F1BD393
:4016C000B1F5001F0CD349085FEA30004FEA3C0C04F101044FEA445212F5800F80F09A80BCF1004F08BF5FEA500C50F1000041EB045141EA050130BD5FEA4C0C404141EB7C
:40170000010111F4801FA4F10104E9D191F0000F04BF01460020B1FA81F308BF2033A3F10B03B3F120020CDA0C3208DD02F1140CC2F10C0201FA0CF021FA02F10CE002F193
:401740001402D8BFC2F1200C01FA02F120FA0CFCDCBF41EA0C019040E41AA2BF01EB0451294330BD6FEA04041F3C1CDA0C340EDC04F11404C4F1200220FA04F001FA02F373
:4017800040EA030021FA04F345EA030130BDC4F10C04C4F1200220FA02F001FA04F340EA0300294630BD21FA04F0294630BD94F0000F83F4801306BF81F480110134013D61
:4017C0004EE77FEA645C18BF7FEA655C29D094EA050F08BF90EA020F05D054EA000C04BF1946104630BD91EA030F1EBF0021002030BD5FEA545C05D14000494128BF41F0E0
:40180000004130BD14F580043CBF01F5801130BD01F0004545F0FE4141F470014FF0000030BD7FEA645C1ABF194610467FEA655C1CBF0B46024650EA013406BF52EA033505
:4018400091EA030F41F4002130BD00BF90F0000F04BF0021704730B54FF4806404F132044FF000054FF0000150E700BF90F0000F04BF0021704730B54FF4806404F132049D
:4018800010F0004548BF40424FF000013EE700BF42004FEAE2014FEA31014FEA02701FBF12F07F4393F07F4F81F06051704792F0000F14BF93F07F4F704730B54FF460748E
:4018C00001F0004521F0004120E700BF50EA010208BF704730B54FF000050AE050EA010208BF704730B511F0004502D5404261EB41014FF4806404F132045FEA915C3FF444
:40190000DCAE4FF003025FEADC0C18BF03325FEADC0C18BF033202EBDC02C2F1200300FA03FC20FA02F001FA03FE40EA0E0021FA02F11444C1E600BF70B54FF0FF0C4CF40A
:40194000E06C1CEA11541DBF1CEA135594EA0C0F95EA0C0F00F0DEF82C4481EA030621EA4C5123EA4C5350EA013518BF52EA033541F4801143F4801338D0A0FB02CE4FF038
:401980000005E1FB02E506F00042E0FB03E54FF00006E1FB03569CF0000F18BF4EF0010EA4F1FF04B6F5007F64F5407404D25FEA4E0E6D4146EB060642EAC62141EA555112
:4019C0004FEAC52040EA5E504FEACE2EB4F1FD0C88BFBCF5E06F1ED8BEF1004F08BF5FEA500E50F1000041EB045170BD06F0004646EA010140EA020081EA0301B4EB5C046E
:401A0000C2BFD4EB0C0541EA045170BD41F480114FF0000E013C00F3AB8014F1360FDEBF002001F0004170BDC4F10004203C35DA0C341BDC04F11404C4F1200500FA05F3A0
:401A400020FA04F001FA05F240EA020001F0004221F0004110EBD37021FA04F642EB06015EEA430E08BF20EAD37070BDC4F10C04C4F1200500FA04F320FA05F001FA04F2C4
:401A800040EA020001F0004110EBD37041F100015EEA430E08BF20EAD37070BDC4F1200500FA05F24EEA020E20FA04F301FA05F243EA020321FA04F001F0004121FA04F2E3
:401AC00020EA020000EBD3705EEA430E08BF20EAD37070BD94F0000F0FD101F00046400041EB010111F4801F08BF013CF7D041EA060195F0000F18BF704703F0004652006C
:401B000043EB030313F4801F08BF013DF7D043EA0603704794EA0C0F0CEA135518BF95EA0C0F0CD050EA410618BF52EA4306D1D181EA030101F000414FF0000070BD50EA08
:401B4000410606BF1046194652EA430619D094EA0C0F02D150EA013613D195EA0C0F05D152EA03361CBF104619460AD181EA030101F0004141F0FE4141F470014FF000002F
:401B800070BD41F0FE4141F4780170BD70B54FF0FF0C4CF4E06C1CEA11541DBF1CEA135594EA0C0F95EA0C0F00F0A7F8A4EB050481EA030E52EA03354FEA013100F0888050
:401BC0004FEA03334FF0805545EA131343EA12634FEA022245EA111545EA10654FEA00260EF000419D4208BF964244F1FD0404F5407402D25B084FEA3202B61A65EB03054A
:401C00005B084FEA32024FF480104FF4002CB6EB020E75EB030E22BFB61A754640EA0C005B084FEA3202B6EB020E75EB030E22BFB61A754640EA5C005B084FEA3202B6EB79
:401C4000020E75EB030E22BFB61A754640EA9C005B084FEA3202B6EB020E75EB030E22BFB61A754640EADC0055EA060E18D04FEA051545EA16754FEA06164FEAC30343EA84
:401C800052734FEAC2025FEA1C1CC0D111F4801F0BD141EA00014FF000004FF0004CB6E711F4801F04BF01430020B4F1FD0C88BFBCF5E06F3FF6AFAEB5EB030C04BFB6EBD8
:401CC000020C5FEA500C50F1000041EB045170BD0EF0004E4EEA113114EB5C04C2BFD4EB0C0541EA045170BD41F480114FF0000E013C90E645EA060E8DE60CEA135594EAC7
:401D00000C0F08BF95EA0C0F3FF43BAF94EA0C0F0AD150EA01347FF434AF95EA0C0F7FF425AF104619462CE795EA0C0F06D152EA03353FF4FDAE1046194622E750EA410626
:401D400018BF52EA43067FF4C5AE50EA41047FF40DAF52EA43057FF4EBAE12E74FF0FF3C06E000BF4FF0010C02E000BF4FF0010C4DF804CD4FEA410C7FEA6C5C4FEA430C3D
:401D800018BF7FEA6C5C1BD001B050EA410C0CBF52EA430C91EA030F02BF90EA020F0020704710F1000F91EA030F58BF994208BF90422CBFD8176FEAE37040F0010070475C
:401DC0004FEA410C7FEA6C5C02D150EA013C07D14FEA430C7FEA6C5CD6D152EA033CD3D05DF8040B704700BF8446104662468C461946634600E000BF01B5FFF7B7FF0028E7
:401E000048BF10F1000F01BD4DF808EDFFF7F4FF0CBF012000205DF808FB00BF4DF808EDFFF7EAFF34BF012000205DF808FB00BF4DF808EDFFF7E0FF94BF012000205DF82B
:401E400008FB00BF4DF808EDFFF7CEFF94BF012000205DF808FB00BF4DF808EDFFF7C4FF34BF012000205DF808FB00BF4FEA410C7FEA6C5C02D150EA013C0AD14FEA430C56
:401E80007FEA6C5C02D152EA033C02D14FF0000070474FF00100704780F0004002E000BF81F0004142001FBF5FEA410392EA030F7FEA226C7FEA236C6AD04FEA1262D2EB12
:401EC0001363C1BFD218414048404140B8BF5B42192B88BF704710F0004F40F4000020F07F4018BF404211F0004F41F4000121F07F4118BF494292EA030F3FD0A2F101028B
:401F000041FA03FC10EB0C00C3F1200301FA03F100F0004302D5494260EB4000B0F5000F13D3B0F1807F06D340084FEA310102F10102FE2A51D2B1F1004F40EBC25008BF7E
:401F400020F0010040EA03007047490040EB000010F4000FA2F10102EDD1B0FA80FCACF1080CB2EB0C0200FA0CF0AABF00EBC25052421843BCBFD0401843704792F0000F96
:401F800081F4000106BF80F400000132013BB5E74FEA41037FEA226C18BF7FEA236C21D092EA030F04D092F0000F08BF0846704790EA010F1CBF0020704712F07F4F04D193
:401FC000400028BF40F00040704712F100723CBF00F50000704700F0004343F0FE4040F4000070477FEA226216BF08467FEA23630146420206BF5FEA412390EA010F40F42E
:40200000800070474FF0000304E000BF10F0004348BF40425FEA000C08BF704743F0964301464FF000001CE050EA010208BF70474FF000030AE000BF50EA010208BF7047F6
:4020400011F0004302D5404261EB41015FEA010C02BF84460146002043F0B64308BFA3F18053A3F50003BCFA8CF2083AA3EBC25310DB01FA02FC634400FA02FCC2F1200287
:40208000BCF1004F20FA02F243EB020008BF20F00100704702F1200201FA02FCC2F1200250EA4C0021FA02F243EB020008BF20EADC7070474FF0FF0C1CEAD0521EBF1CEA86
:4020C000D15392EA0C0F93EA0C0F6FD01A4480EA010C400218BF5FEA41211ED04FF0006343EA501043EA5111A0FB01310CF00040B1F5000F3EBF490041EAD3715B0040EA11
:40210000010062F17F02FD2A1DD8B3F1004F40EBC25008BF20F00100704790F0000F0CF0004C08BF49024CEA502040EA51207F3AC2BFD2F1FF0340EAC250704740F400009F
:402140004FF00003013A5DDC12F1190FDCBF00F000407047C2F10002410021FA02F1C2F1200200FA02FC5FEA310040F1000053EA4C0308BF20EADC70704792F0000F00F09F
:40218000004C02BF400010F4000F013AF9D040EA0C0093F0000F01F0004C02BF490011F4000F013BF9D041EA0C018FE70CEAD15392EA0C0F18BF93EA0C0F0AD030F0004C7F
:4021C00018BF31F0004CD8D180EA010000F00040704790F0000F17BF90F0004F084691F0000F91F0004F14D092EA0C0F01D142020FD193EA0C0F03D14B0218BF084608D196
:4022000080EA010000F0004040F0FE4040F40000704740F0FE4040F4400070474FF0FF0C1CEAD0521EBF1CEAD15392EA0C0F93EA0C0F69D0A2EB030280EA010C49024FEAA3
:40224000402037D04FF0805343EA111143EA10130CF000408B4238BF5B0042F17D024FF4000C8B4224BF5B1A40EA0C00B3EB510F24BFA3EB510340EA5C00B3EB910F24BF25
:40228000A3EB910340EA9C00B3EBD10F24BFA3EBD10340EADC001B0118BF5FEA1C1CE0D1FD2A3FF650AF8B4240EBC25008BF20F0010070470CF0004C4CEA50207F32C2BF34
:4022C000D2F1FF0340EAC250704740F400004FF00003013A37E792F0000F00F0004C02BF400010F4000F013AF9D040EA0C0093F0000F01F0004C02BF490011F4000F013B13
:40230000F9D041EA0C0195E70CEAD15392EA0C0F08D142027FF47DAF93EA0C0F7FF470AF084676E793EA0C0F04D14B023FF44CAF08466EE730F0004C18BF31F0004CCAD108
:4023400030F000427FF45CAF31F000437FF43CAF5FE700BF4FF0FF3C06E000BF4FF0010C02E000BF4FF0010C4DF804CD4FEA40024FEA41037FEA226C18BF7FEA236C11D0A9
:4023800001B052EA530C18BF90EA010F58BFB2EB030088BFC81738BF6FEAE17018BF40F0010070477FEA226C02D15FEA402C05D17FEA236CE4D15FEA412CE1D05DF8040B66
:4023C000704700BF844608466146FFE70FB5FFF7C9FF002848BF10F1000F0FBD4DF808EDFFF7F4FF0CBF012000205DF808FB00BF4DF808EDFFF7EAFF34BF012000205DF84D
:4024000008FB00BF4DF808EDFFF7E0FF94BF012000205DF808FB00BF4DF808EDFFF7D2FF94BF012000205DF808FB00BF4DF808EDFFF7C8FF34BF012000205DF808FB00BF32
:4024400042000ED2B2F1FE4F0BD34FF09E03B3EB126209D44FEA002343F0004323FA02F070474FF00000704712F1610F01D1420202D14FF0FF3070474FF00000704700BFD9
:402480002DE9F04F8C460C460546099E002B4FD18A4217466BD9B2FA82FEBEF1000F0BD0CEF1200520FA05F501FA0EF345EA030C02FA0EF700FA0EF5390CBCFBF1F0BAB2BB
:4024C00001FB10C300FB02F84FEA154C4CEA0344A04509D9E41900F1FF3380F02881A04540F2258102383C44C8EB0404B4FBF1F301FB134C03FB02F2ACB244EA0C418A424A
:4025000009D9C91903F1FF3480F00F818A4240F20C81023B39448A1A43EA00400021002E63D022FA0EF2002386E80C00BDE8F08F8B4207D9002E56D0002186E8110008460C
:40254000BDE8F08FB3FA83F1002940F09380A34202D3824200F2FE80851A64EB03039C460120002E41D086E82010BDE8F08F12B90127B7FBF2F7B7FA87FEBEF1000F36D13B
:40258000E41B4FEA17481FFA87F90121B4FBF8F308FB134409FB03F24FEA154C4CEA0444A24207D9E41903F1FF3002D2A24200F2D3800346A41AB4FBF8F008FB104809FBE6
:4025C00000F9ACB244EA0842914507D9D21900F1FF3402D2914500F2BA802046C9EB020240EA03409BE731463046BDE8F08F07FA0EF7CEF1200C24FA0CF34FEA1748B3FBFF
:40260000F8FA1FFA87F908FB1A3520FA0CFC04FA0EF40AFB09FB4CEA040C4FEA1C4242EA05439B4500FA0EF50AD9DB190AF1FF3280F08B809B4540F28880AAF1020A3B44A6
:40264000CBEB0303B3FBF8F008FB103300FB09F41FFA8CFC4CEA03439C4207D9DB1900F1FF326ED29C426CD902383B441C1B40EA0A418BE7C1F1200E8B4022FA0EFC4CEA98
:40268000030C24FA0EF74FEA1C49B7FBF9FA1FFA8CF309FB1A7720FA0EF88C400AFB03F548EA04044FEA144848EA0747BD4202FA01F200FA01FB09D917EB0C070AF1FF303B
:4026C00041D2BD423FD9AAF1020A67447F1BB7FBF9F509FB157705FB03F3A4B244EA0747BB4208D917EB0C0705F1FF3027D2BB4225D9023D674445EA0A40A0FB0289FF1A1E
:402700004F4545464C4614D329D066B3BBEB050367EB040707FA0EFECB40CF404EEA030386E888000021BDE8F08F2346F3E61846DAE6B8EB020569EB0C040138E5E7054686
:40274000D9E7104692E78246C0E7924678E702383A4443E7084604E7023B3C442AE7C345E7D33C46D1E73146BDE8F08F704700BF014B1868704700BF0885FF1F70B50F4EBF
:402780000F4D761BB61018BF002405D0013455F8043B9847A642F9D10A4E0B4D04F0D2FE761BB61018BF002406D0013455F8043B9847A642F9D170BD70BD00BF5075000078
:4027C000507500005C75000050750000844641EA000313F0030349D1403A23D30B6803604B6843608B688360CB68C3600B6903614B6943618B698361CB69C3610B6A036261
:402800004B6A43628B6A8362CB6AC3620B6B03634B6B43638B6B8363CB6BC36340304031403ADBD230320BD30B6803604B6843608B688360CB68C36010301031103AF3D26A
:402840000C3205D351F8043B40F8043B043AF9D2043208D0D2071CBF11F8013B00F8013B01D30B8803806046704700BF082A13D38B07B1D010F00303AED0C3F10403D21AA3
:40288000DB071CBF11F8013B00F8013BA4D331F8023B20F8023B9FE7043AD9D3013A11F8013B00F8013BF9D20B7803704B7843708B7883706046704770B4840746D0541ECB
:4028C000002A41D0CDB2034602E0621EE4B3144603F8015B9A07F8D1032C2ED9CDB245EA05250F2C45EA054519D9264603F11002103E0F2E42F8105C42F80C5C42F8085C2A
:4029000042F8045C02F11002F2D8A4F1100222F00F0204F00F041032032C13440DD91E462246043A032A46F8045BFAD8221F22F003020432134404F003042CB1C9B21C4471
:4029400003F8011BA342FBD170BC704714460346C2E700BF0FB410B5074B82B004AC54F8042B186823468168019400F091F802B0BDE8104004B070470885FF1FF0B50546DD
:4029800089B008460C4600F055F8431C144F0393AB6B012604A9022204940590AC680697079601910292B3B1B4F90C309A0406D4626E43F4005322F40052A3816266214620
:4029C000284601AA02F01AFF002814BF4FF0FF300A2009B0F0BD284602F0BCFDE4E700BFC4730000024B01461868FFF7C7BF00BF0885FF1F30B40C4B0C4C19680C4DD1F8B0
:402A0000A820D1F8AC0004FB02F4A2FB052305FB00400132034443F10003C1E92A2323F0004030BC704700BF0885FF1F2DF451582D7F954C20F0030110F00300C0F1000038
:402A400051F8043B00F1040C4FEACC0C6FF000021CBF22FA0CF213434FF0010C4CEA0C2C4CEA0C4CA3EB0C0222EA030212EACC1204BF51F8043B0430F4D0C2F1000102EA5E
:402A80000102B2FA82F2C2F11F0200EBD20070472DE9F04FC1B01C460891164605460A9003F062F803680E9418461793FFF7C2FF16901DB1AB6B002B00F0BD830898B0F962
:402AC0000C2093B2990407D4416E42F4005321F40051838141669BB21A0740F1E482089A1269002A00F0DF8203F01A030A2B00F0E88200231A46B0460DF1C00ADFF85C9460
:402B0000129319930B9325932493CDF88CA01492159298F800304446EBB1252B02D11AE0252B03D014F8013F002BF9D1C8EB04058DB1249B259A01332A44072BCAF8008004
:402B4000CAF804502592249300F330830AF1080A0B9B2B440B932378002B00F0EA814FF0FF3B5D4600231A468DF86F3019460C930793637804F1010808F10108A3F1200060
:402B8000582800F24086DFE810F0DC053E063E06E5053E063E063E063E063E063E065900AA053E066600AA033E06C603CD03CD03CD03CD03CD03CD03CD03CD03CD033E062B
:402BC0003E063E063E063E063E063E063E063E063E06DD0357053E0657053E063E063E063E06A2053E063E06BC043E063E063E063E063E06E4043E063E0611053E063E0634
:402C00003E063E063E063E063E063E063E063E0644058D0457055705570595048D043E063E069D043E06A8044A046D00B0053E06B8053E0621043E063E06ED050E9C2368BA
:402C400018460C932346002803F104030E9306DA0C9B5B420C93079B43F00403079398F8003089E7AB460E9A0027079830217823BB4514688DF8701002F104024FF00005B8
:402C80008DF871308DF86F7040F00201C0F2D18520F0800141F00201079154EA05010E921193AC4800F0318130AE230943EA0573290904F00F020D461C46835C06F8013D1E
:402CC00054EA0503F1D130AB9B1B0D930D9B5B45B8BF5B4609930023139317B1099B01330993079B13F002030F9302D0099B02330993079B13F08403109340F018810C9BC8
:402D0000099A9D1A002D40F31281102D2599249A914F27DD189650461024BA46089E2F460A9D04E0103F102F00F1080016DD0132894B1031072A2591249280E81800F1DDDE
:402D400023AA3146284604F073F8002840F0F880103F102F30A82599249AE8DC3D4657468246189E01326C18072A25942492CAF80070CAF8045000F3D0809DF86F700AF1DD
:402D8000080A77B1249B013401330DF16F010122072B259424938AE8060000F31E820AF1080A0F9B6BB1249B023401331CA90222072B259424938AE8060000F31A820AF1EA
:402DC000080A109B802B00F02A810D9BC3EB0B07002F33DD614A102F249B0F9222DD22464FF0100B0A9D089C04E0103F102F0AF1080A16DD01331032072B259224938AE8D9
:402E0000000AF2DD23AA2146284604F011F8002840F09680103F102F0DF1C00A259A249BE8DC144601330F9A3C44072B259424938AE8840000F3C5810AF1080A079BDD05FB
:402E400000F18E80249B0D9901330C44072B2594CAF80060CAF80410249300F3E0810AF1080A079B580736D50C9B099A9D1A002D31DD102D249B384F22DD22461026DDF832
:402E800028B0089C04E0103D102D0AF1080A16DD013331491032072B259224938AE84200F1DD23AA2146584603F0C2FF002847D1103D102D0DF1C00A259A249BE8DC144662
:402EC00001332C44072B25942493CAF80070CAF8045000F38D840B9B0C9A09998A42ACBF9B185B180B93002C40F05781002324930DF1C00A0DE60027BB458DF86F70C0F251
:402F0000A284079B23F080030793BBF1000F00F06784002400250027C6E623AA08990A9803F086FF60B99DF86F700DF1C00A259C27E7259B23B10A9823AA089903F078FF2D
:402F4000089B9B89590600F10E870B9841B0BDE8F08F00BFFC730000C87300001C740000119B652B40F3BB801498159900220023FEF74AFF002800F06781249BB049013381
:402F800001340122072B259424938AE8060000F38B860AF1080A1D9B129A934203DB079BD8077FF55EAF249B16990133179A0C44072B2594CAF80020CAF80410249300F385
:402FC0002B870AF1080A129B5D1E002D7FF749AF9C4A102D249B0F9240F3178110260A9FDDF820B005E00AF1080A103D102D40F30C8101331034072B25942493CAF80090D5
:40300000CAF80460EFDD23AA5946384603F010FF002895D10DF1C00A259C249BE5E70C9B099A9F1A002F7FF7D0AE864A102F249B0F922BDD52462146BA46102537460A9C1C
:40304000089E06E0AAF1100ABAF1100F02F1080218DD01331031072B25912493C2F800905560EFDD23AA3146204603F0E1FE00287FF466AFAAF1100ABAF1100F30AA259931
:40308000249BE6DC3E460C465746924601330F9A3C44072B259424938AE8840000F3D6840AF1080A91E608990A9801F0EBF8002840F05986089B9B8903F01A030A2B7FF4B1
:4030C00018AD0899B1F90E30002BFFF612AD234632460A9801F0A0F841B0BDE8F08F129B249D012B04F1010405F1010540F35D840123072D2594CAF800602495CAF80430FC
:4031000000F36E840AF1080A169A0135179B1444072D25942495CAF80030CAF8042000F36D840AF1080A0023149815990022FEF76BFE129B002800F02A835E1E002E40F3F2
:403140003583404B102E0F9340F36984CDF834801027B046DDF828B0089E07E00AF1080AA8F11008B8F1100F40F3568401351034072D25942495CAF80090CAF80470EDDD27
:4031800023AA3146584603F053FE00287FF4D8AE0DF1C00A259C249DE2E723AA08990A9803F046FE00283FF4A1AEC9E623AA08990A9803F03DFE00287FF4C2AE0DF1C00A04
:4031C000C6E423AA08990A9803F032FE00287FF4B7AE0DF1C00A259C30E623AA08990A9803F026FE00287FF4ABAE0DF1C00A259CD7E523AA08990A9803F01AFE00287FF43D
:403200009FAE0DF1C00A259CDBE501330F9A2C44072B259424938AE824007FF720AE23AA08990A9803F004FE00287FF489AE259C0DF1C00A15E60A9802F08CF93EE400BFDA
:40324000187400001C7400001D9D002D40F33B85139B129A9342A8BF1346002B1D460DDD249B2C440133072B2594CAF80060CAF80450249300F30E860AF1080A139B002D45
:40328000A8BF5B1B002B1D4640F32D83C64A102D249B0F9240F3FB8422461027DDF828B0089C05E00AF1080A103D102D40F3EE8401331032072B25922493CAF80090CAF826
:4032C0000470EFDD23AA2146584603F0B1FD00287FF436AE0DF1C00A259A249BE4E798F8003008F101042A2B00F04587A3F13000092898BF002500F2D78614F8013B05EBC4
:40330000850500EB4505A3F130000928F5D945EAE575A04632E4079B43F08003079398F8003029E4A3F1300000231C4618F8013B04EB840400EB4404A3F130000928F5D9C5
:403340000C941BE41193AB46002A40F03B87079B43F010030793079B9F0640F18A820E9C073424F00704D4E9002304F108011D4614460E91002A73F10003C0F27483BBF1D3
:40338000000F9DF86F70C0F29482079B23F08003079354EA050338D0002D08BF0A2C39D330AE204629460A22002303F09BFF303206F8012D2046294600230A2203F092FFA7
:4033C00004460D4654EA0503EBD17CE41193AB46002A40F0F386079A12F0200300F0C7800E9C0027073424F0070303F10801BB450E91D3E900458DF86F70C0F25A8222F09E
:403400008003079354EA0503C6D1BBF1000F00F0E881002440AE303406F8414D53E41193AB46002A40F0C686079A12F0200375D00E9C0027073424F0070303F10801BB45D8
:403440000E91D3E900458DF86F700BDB22F08003079354EA050306D1BBF1000F00F0048600240025002730AEE20842EA4572E90804F007030D461446303354EA050206F884
:40348000013DF1D1079AD2077FF51DAC302B3FF41AAC3022731E06F8012C30AAD21A0D921E4613E41193AB46002A3FF454AF8DF86F1050E7079B43F04003079398F8003091
:4034C000FFF75ABB98F800306C2B00F09B84079840F010000790FFF74FBB002A40F08686079B9F0640F10E830E9A134604330E930B9B1168DD171A462B46C1E90023FFF7F6
:4035000008BB1193AB46002A40F06486079B43F010030793079A12F0200389D1079911F0100200F0B0820E98BBF1000F024604688DF86F3002F104024FF00005C0F2478584
:4035400021F08001079154EA05010E9284D01F4689E71193AB46002A40F03886079B43F010030793079A12F020037FF439AF079911F0100200F08A810E98BBF1000F02466D
:4035800004688DF86F3002F104024FF00005C0F2218521F08001079154EA05010E921F467FF4FAAE31E700BF1C7400001193AB46002A40F01786079BC0489C0640F1DC808C
:4035C0000E9C073424F0070303F108020E92D3E90045079A12F0010700F0398154EA05033FF489AC9DF8442000278DF87120079A3023BB458DF870308DF86F7042F002033C
:40360000C0F2058522F0800343F002030793FFF74BBB0E9911930A68002301201F468DF86F309B4613930B1D09908DF898200E930D9026AEFFF755BB1193AB46002A40F0D5
:40364000CD85079B0E9C1D0704F1070440F1148324F0070303F108020E921A685B6814921593159B149D23F00044284621464FF0FF32934BFEF7FAFB002840F075822846EF
:4036800021464FF0FF328E4BFEF7D2FB002840F06B821498159900220023FEF7BFFB002840F0AF849DF86F700799864E21F08001854B0791119903224FF0000B0992472974
:4036C000D8BF1E460D92CDF84CB0FFF706BB079B43F00803079398F80030FFF74DBA98F8003001222B21FFF747BA079B43F02003079398F80030FFF73FBA0E9AAB46166803
:40370000002511938DF86F50141D002E00F05084BBF1000FC0F28D835A462946304602F047FD002800F09484AB46831B0D9323EAE3730E940993CDF84CB09DF86F70FFF7F6
:40374000CCBA98F8003000297FF416AA01222021FFF712BA079B43F00103079398F80030FFF70ABA1193AB46002A40F04685079B56489C063FF524AF079BD90640F1B58109
:403780000E9A00251346043314680E9321E7013B013501361C44072DCAF8006024952594CAF8043000F345810AF1080A199A013514441FAB072D25942495CAF80420CAF8A1
:4037C00000307FF74CAB23AA08990A9803F030FB00287FF4B5AB0DF1C00A259CFFF741BB5F464FF0000BCDF834B030AEFFF76EBA23AA08990A9803F01BFB00287FF4A0ABF5
:40380000259CFFF768BB1193002A40F0FA84119A002A3FF48EAB002301211F4609918DF898208DF86F309B4613930D9126AEFFF758BA26480791119354EA05030E924FF07C
:4038400000077FF431AA00240025FFF72DBABBF1000F8DF86F70C0F2348222F08003079354EA05037FF420AABBF1000F7FF451ABB6E7079BDE0640F15C810E9A13461C68B4
:403880000433E5170E9322462B4673E5079911F0400740F06C820E9ABBF1000F134614688DF86F7003F104034FF0000580F250810E9354EA05037FF46FADABE5E87300007E
:4038C000FFFFEF7FDC730000D8730000FC73000023AA08990A9803F0ABFA00287FF430AB259C0DF1C00A139A1D9B32441746129A934249DB079AD20746D412990E44F51B2E
:40390000CB1A9D42A8BF1D46002D2E460DDD249A2C440132072A2594CAF80070CAF80450249200F330830AF1080A002EB4BF1D469D1B002D7FF795AA8A4A102D249B0F9263
:403940007FF763AC10260A9FDDF820B005E00AF1080A103D102D7FF758AC01331034072B25942493CAF80090CAF80460EFDD23AA5946384603F05CFA00287FF4E1AA0DF193
:40398000C00A259C249BE4E7249A1698013217990444072A2594CAF80010CAF80400249200F387820AF1080AA7E7079BDF073FF59FAB0123072D2594CAF800602495CAF8D8
:4039C00004307FF7F1AE23AA08990A9803F030FA00287FF4B5AA0DF1C00A259C249DE5E623AA08990A9803F023FA00287FF4A8AA0DF1C00A259C249DFFF786BB23AA089946
:403A00000A9803F015FA00287FF49AAA0DF1C00A259C249DFFF787BB4646DDF8348001350F9B3444072D259424958AE848007FF7BBAE23AA08990A9803F0FAF900287FF444
:403A40007FAA259C249D0DF1C00AAFE623AA08990A9803F0EDF900287FF472AA0DF1C00A259CFFF7B2B964424FF02D0765EB4505BBF1000F8DF86F70FFF68EAC079B23F0FE
:403A80008003079388E4079911F0400716D00E98BBF1000F034604888DF86F2003F104034FF00005C0F2A58121F08001079154EA05010E933FF4D0AC1746D4E40E9ABBF127
:403AC000000F134614688DF86F7003F104034FF00005C0F28E81079A0E9322F08002079254EA05027FF4BFACB6E40E9A079B002513F0400F134603F104030CBF146814885A
:403B00000E9366E5079BDE060BD4079B5D0608D50E9A136804320E92BDF82C201A80FEF7F8BF0E9A136804320E920B9A1A60FEF7F0BF079B0E9A13F0400F13463FF49FAEE1
:403B4000B2F900400433E5170E9322462B4611E4079A0E9322F08002079254EA05027FF41BAC52E41C740000149C22462046159C23462146FEF77AF9002840F0BE82119B59
:403B8000BBF1FF3F23F020030D9300F04382472B00F03281079B43F480731093159B1F1E149B0993B7BF3B46002303F100472D230F93119B662B00F01082462B00F0FC80F1
:403BC0000D9B21A8452B18BF5D461EA908BF0BF10105049003911DA802213B460290099A019500910A9800F057FC119B0646672B40F04982079BDA0740F1718274190998AE
:403C0000394600220023FEF7FFF8002840F04F81219B9C4206D930215A1C21921970219B9C42F9D89B1B12930D9B472B00F02B81119B652B40F33682119B662B1D9B1393F2
:403C400000F0F881139A12998A42C0F2E681079BDB0700F13B8222EAE2730D92672211920F9A002A40F005810993109B934607939DF86F70FFF731B824F007042368149359
:403C80006368159304F108030E93EAE4144601330F9A2C44072B259424938AE824003FF717AE0AF1080A1EE623AA08990A9803F0BFF800287FF444A90DF1C00A259CFFF776
:403CC0006AB90E9AB8E5249BB649013301340122072B259424938AE8060060DC0AF1080A2DB9129B1BB9079BD9077FF5BAA8249B16990133179A0C44072B2594CAF8002080
:403D0000CAF80410249300F3D3810AF1080A6D42002D40F3A080A44A102D0F9240F3D78022461027DDF828B0089C05E00AF1080A103D102D40F3CA8001331032072B2592D5
:403D40002493CAF80090CAF80470EFDD23AA2146584603F06DF800287FF4F2A80DF1C00A259A249BE4E74FF0FF30FFF7EFB80E98BBF1000F034604888DF86F2003F1040378
:403D80004FF00005C0F2AD8121F08001079154EA05010E9317467FF4FFAAFFF736BB23AA08990A9803F044F800287FF4C9A80DF1C00A1D9D259C93E721A81EA904900391B0
:403DC0001DA803210290099A3B46CDF804B000910A9800F061FB5D460646119B7419462B7FF40DAF3378302B00F0A5811D9D2C4405E70E93FFF736BBBBF1000F08BF4FF0E9
:403E0000010BC7E6079B08F1010843F02003079398F80030FEF7B0BE23AA08990A9803F007F800287FF48CA80DF1C00A259CFFF7CAB83046FEF7FEFDAB46034676E423AA79
:403E400008990A9802F0F4FF00287FF479A8259C249B0DF1C00A129901330C44072B25942493CAF80060CAF804107EF7F8AFFFF7D6B90993109B2D2707938DF86F704FF0D4
:403E8000000BFEF72BBF1D9BD81C2CDB9B452ADB1393D7E623AA08990A9802F0C9FF00287FF44EA80DF1C00A259CFFF7E7B92346B8E623AA08990A9802F0BAFF00287FF446
:403EC0003FA80DF1C00A1D9B259C16E5144601330F9A2C44072B259424938AE82400AEDC0AF1080AB7E7119A023A1192013B9DF84420002B1D93B8BF5B428DF87C20B4BF49
:403F00002D222B22092B8DF87D2040F3EE800DF18B000446254A82FB0321DA17C2EBA10101EB8102A3EB4202303209290B4604F8012DEFDC21463033DAB201F8012D884269
:403F400040F258810DF17E01234601E013F8012B984201F8012BF9D1431C1B1B0DF17E0213441FAA9B1A129A1993012A13440D9340F3EF800D9B169A134400220D93139255
:403F800023EAE3736CE623AA08990A9802F050FF00287EF4D5AF1D9B129A259CD31A0DF1C00AC2E4187400001C740000676666665B46062B28BF06230D9323EAE373B346CA
:403FC000374613960E940993904EFEF786BE0E92FFF748BA0E921F466BE421A81EA9049003911DA803210290099A3B46CDF804B000910A9800F050FA5D46064600EB0B0434
:40400000F0E62D231F468DF86F30FFF74DBB0793FEF74ABE4FF0060BBCE5169A129B1344139A0D93002A40F39E80672223EAE373119215E6002B40F3AC80BBF1000F71D1BE
:40404000079AD1076ED41A4623EAE3730D9207E62BEAEB73CDF834B0099383460E9413909DF86F70FEF739BE079B5F46DB0705D540AE302306F8413DFEF725BECDF834B0CF
:4040800030AEFEF723BE119B472B7FF4B7AD079BDC073FF5A2AE219B9B1B12930D9B472B3FF4F1AE1D9B21E7A0460025FEF766BD23AA08990A9802F0BBFE00287EF440AF24
:4040C0000DF1C00A1D9D259C249B20E6169A139B134467220D93119223EAE373C0E5219BA0E50E931746FFF7E4BB303330228DF87F308DF87E2020AB33E70799444E21F027
:404100008001444B0791119903224FF0000B09924729D8BF1E460D92CDF84CB09DF86F70FEF7DBBD139B169A9D1805EB0B030D9323EAE37394E50998394600220023FDF771
:4041400063FE00287FF452AEC5F101051D952C4455E5079B13F001037FF40CAF13930D9B23EAE3737CE5139B0D9AC3F101031A4413460D9259E70E9898F801300568043097
:40418000002D0E90A046BEF6F7AC4FF0FF35FEF7F3BCBBF1000F02D1079BDA0707D5169B5D1C05EB0B030D9323EAE37358E501230D9355E58DF86F10FFF736B98DF86F10A0
:4041C000FFF709B98DF86F10FFF7C1B88DF86F10FFF7C4B98DF86F10FFF798B98DF86F10FFF72FBA8DF86F10FFF7E5B98DF86F10FFF776B90DF17E03B3E68DF86F10FFF71C
:40420000B6BA8DF86F10FFF702BB00BF10740000E4730000E0730000F0B50C468989ADF26C4D656E21F00201666AADF80C10E169E789199500250791099606951AAE4FF427
:40424000806569460096049602950595ADF80E700646FEF71DFC051E07DB3046694601F0E5F8002818BF4FF0FF35BDF80C305B0603D5A38943F04003A38128460DF26C4D4C
:40428000F0BD00BF38B5304B054618680C4610B1836B002B38D0B4F90C2093B218070CD52069A8B113F001021ED0636900225B42A361A260F0B1002038BDD9063BD55807A2
:4042C00025D4206942F00803A3819BB20028E9D103F42072B2F5007FE4D02846214601F077FCA3892069DDE7990758BF6269A2600028E0D1B4F90C301A06DDD543F0400309
:40430000A3814FF0FF3038BD01F024F9C3E7216B51B104F14003994204D0284601F086F9B4F90C20002323632069002322F0240284E80900C6E742F0400209232B604FF0F9
:40434000FF30A28138BD00BF0885FF1F024B13B1024800F005B870470000000069550000002301461A46184602F082BD2DE9F04F03690F6983B09F4200F38980013F01F13B
:40438000140600F1140A56F827305AF827200133B2FBF3F8BB00009306EB030953440193B8F1000F3BD000231C46B446D6465CF804BBDEF800501FFA8BF208FB02324FEAB7
:4043C0001B4B130C08FB0B3392B2A41A1FFA83FBAAB22244CBEB154404EB224492B242EA0442E1454EF8042B4FEA24444FEA1343DDD2009B5AF803308BB9019C231F9A45E6
:404400000CD254F8043C4BB9A4F1080302E01A68043B1AB99A4507F1FF37F8D30761044602F082F900282EDB00235546194608F1010856F8042B2B6890B2081A120C99B2D4
:40444000C2EB1343421803EB224392B242EA0342B14545F8042B4FEA2341EAD25AF827200AEB87037AB91A1F92450BD253F8042C42B9083B02E01A68043B1AB99A4507F1DE
:40448000FF37F8D32761404603B0BDE8F08F002003B0BDE8F08F00BF2DE9F04F016C99B0814692469B46259C49B1426C012393408B604A6001F052FF0023C9F84030BBF19E
:4044C000000FD84633DB00232360A34B1A4608EA0303934214D00022002350465946FDF793FC054648B3249A01231360269B002B00F0C58099481860013819B0BDE8F08FA4
:4045000042F20F73249A1360BAF1000F00F0A2809348269B002BF0D0C378002B00F0B18000F10803269A136019B0BDE8F08F01232BF000482360C346C7E716AA17AB0192C8
:40454000009352465B46484602F0A2F95FEA1854099040F08880169D179C2C4404F23243202B40F38A82C3F1400304F2124008FA03F82AFA00F040EA0800FDF767F9012309
:40458000013CA1F1F8710F930022764BFDF720F86BA3D3E90023FDF7CFF96BA3D3E90023FDF718F8064620460F46FDF75FF968A3D3E90023FDF7C0F902460B463046394620
:4045C000FDF708F806460F4602F064FE00220390002330463946FDF721FC002840F02982039E162E00F222825F49524601EBC6015B46D1E90001FDF72FFC002800F042822C
:40460000731E039300230D932C1B631E049300F12B8200230693039B002BC0F21C82049A0C9311461944002304910B93229B092B29D8052B40F35286043B22930025229B74
:40464000023B032B00F22F86DFE813F02703200232035304424B454AC8F31300002814BF1846104655E7CBF3130343F07F510F955046A4F2FF3441F44011169D84E73C48AF
:404680003BE7C31C4EE70021C9F844104846229101F03CFE4FF0FF33229A07930E93012308902392C9F840000A93179B002BC0F2CA80039A0E2A00F3C6802B4B03EBC2039B
:4046C00018CBCDE90434239B002BC0F2FC8256465F46DDE904AB304652465B463946FDF755FA02F0D7FD0446FDF7C0F852465B46FDF722F902460B4630463946FCF768FFBD
:40470000079E089F04F13005012E3D7002460B4607F101055ED00022164BFDF70DF90022002306460F46FDF76FFB002878D1CDF81890DDF81CA0DDF820B0DDE9048928E032
:4047400061436F63A787D23FB3C8608B288AC63FFB799F501344D33F0000F07F19740000387400000000F83F487400002C74000018740000000024400022C34BFDF7DCF878
:404780000022002306460F46FDF73EFB002840F0B38342464B4630463946FDF7F7F902F079FD0446FDF762F842464B46FDF7C4F802460B4630463946FCF70AFF04F13006E8
:4047C00005F8016BCBEB0506564502460B46D3D1DDF8189010461946FCF7FCFE06460F4602460B46DDE90401FDF718FB40B9DDE9040132463B46FDF707FB88B1E3070FD5D2
:4048000015F8014C6B1E089A04E09A4200F02C8413F8014D392C03F10105F6D001341C700999484601F09AFD0022039B2A70249A01331360269B002B00F0A88308981D60B9
:4048400019B0BDE8F08F0A9A002A00F01281229A012A40F35A82079B0B9A5F1EBA42C0F29883D71B079B002BC0F28C84069D079B069A01211A440692049A48461A440492D9
:4048800001F004FE064665B1049900290B4608DDA942A8BF2B46069AED1AD21ACB1A069204930B9B002B40F3FD820A9A002A00F00382002F00F0008231463A46484601F060
:4048C0008DFEDDF82480014642460646484601F0E7FD41460446484601F040FD0B9BDB1B0B9340F0E8810121484601F0CFFD0C9B8046002B00F01B8201461A46484601F01E
:404900006DFE229B8046012B40F3F9820027D8F8103008EB8303186901F06AFDC0F12000049A104410F01F0000F0F881C0F12003042B40F3CB84069BC0F11C000344069308
:404940001346034405440493069B002B05DD21461A46484601F092FE0446049B002B05DD41461A46484601F089FE80460D9B002B40F07D82079B002B40F396820A9B002BA0
:4049800040F0F681DDF820A0079F554604E02146484601F0EDFC044641462046FFF7E6FC303005F8010BCAEB0503BB424FF00A024FF00003EBDB089B079A8246012AACBFA0
:4049C0009B1801331D464FF0000B21460122484601F054FE4146099001F0A6FE002840F30E8315F8012C6B1E089904E08B4200F0798213F8012D392A03F10105F6D0013298
:404A00001A704146484601F0A9FC002E3FF408AFBBF1000F05D0B34503D05946484601F09DFC3146484601F099FCF9E601230D93EAE5DDF80C804046FCF718FF02460B4690
:404A400030463946FDF7E0F900287FF4C9AD08F1FF330393C4E5069A039BD21A5B420B93002306920C93E1E55B42069300230493D1E50B9F069D0A9E05E7C3F120080AFA0D
:404A800008F07AE50D90BFE50000244000230A93039B239A13440E930133002B079340F38582079C26460021172EC9F844100BD9012204235B0003F11400B042114602F15D
:404AC0000102F7D9C9F84410484601F01FFC0E2C0890C9F840003FF6E8AD002D3FF4E5AD5746D8460399CDE91078002940F39382924B01F00F020E1103EBC203F006D3E93C
:404B0000004540F14E828E4B5046D3E908235946FDF73CF882468B4606F00F064FF0030886B1874FF10709D5D7E9002320462946FCF702FF04460D4608F10108761007F178
:404B40000807EFD122462B4650465946FDF71EF806460F460D9B43B100227A4B30463946FDF75CF9002840F023834046FCF77EFE32463B46FCF7E0FE734B0022FCF72AFD35
:404B8000079B0446A1F15075002B00F0E181039B1393079B12930A9B002B00F09882129A664B002003EBC20353E902236749FCF7EDFF22462B46FCF70BFD82468B463046CD
:404BC000394602F067FB0446FCF750FE02460B4630463946FCF7FCFC3034089DE4B206460F462C7002460B46504659460135FDF733F900284ED132463B4600205149FCF7F1
:404C0000E7FC02460B4650465946FDF725F9002840F00E83129A012A40F3B481129B089A134498460FE032463B4600204549FCF7CFFC52465B46FDF7F1F8002840F0F882C9
:404C4000454500F09F81504659460022404BFCF773FE00223E4B82468B4630463946FCF76BFE0F46064602F015FB0446FCF7FEFD02460B4630463946FCF7AAFC3034E4B2C3
:404C800005F8014B52465B4606460F46FDF7C6F80028C8D0139B0393C2E500230A93239B002B40F388811E461C460E930793FAE601230A93F3E709940B9A0999484601F0B0
:404CC0008DFC04460FE6079B002B3FF700AD40F0D982DDE9040100221E4BFCF72DFE52465B46FDF7AFF8DDF81C804646002800F0F180239B089DDB4303934146484601F0C6
:404D00002DFB002E3FF48CAD8BE60F9A002A00F0418203F233430B9F069DA9E51C20069B054403440693049B034404930CE6229B012B40F381820C9F0120F1E54874000082
:404D4000107500000000F03F00001C400000E03F0000244000001440314600230A22484601F006FB0E9B0646002B40F397820793002D05DD31462A46484601F07FFC0646C4
:404D8000002F40F07B810696079B089A013BD318099317460AF00103C246DDF818B00A9351462046FFF7E2FA31460546204601F0BBFC5A4604905146484601F0D5FCC26874
:404DC000804605F13003002A49D101462046079301F0AAFC41460690484601F0BFFA069A079B2AB9229919B90A99002900F0368204990029C0F2E48005D1229919B90A9945
:404E0000002900F0DD80002A00F34C81099A07F1010897423B70454600F05381214600230A22484601F0A4FA5E45044631464FF000034FF00A0248460BD001F099FA59464B
:404E4000064600230A22484601F092FA47468346A6E701F08DFA474606468346A0E701464846069301F07AFA0122069BC0E74146204601F059FC0028BFF67CAD2146039C8B
:404E80000023013C0A224846039401F071FA0A9B0446002B7FF460AF0E9B002B40F3F68107936FE5099C1EE5229B022B7FF766AD079B002B40F07A8141460522484601F09D
:404EC00057FA01468046204601F02EFC002809947FF70FAF039A08993123013203920B704D1C0AE7039A312301320392089A137087E501230A93CBE5DDF8189090E4BAF154
:404F0000000F7FF403ADCBF31303002B40F040812BF000473F0D3F0537B1069B012701330693049B013304930C9B0120002B3FF4F7ACECE44046FCF799FC32463B46FCF7E2
:404F4000FBFC0022BF4BFCF745FB0446A1F15075304639460022BC4BFCF73AFB22462B4606460F46FCF778FF8046002840F00681224605F1004330463946FCF74FFF08B1DB
:404F80004646B6E6DDE910ABFFF78FBB0898FFF7B4BA0B9B0C9AFB1A1A440B970C92002760E4DDE910AB4FF00208B9E51C460021C9F8441088E5012423940E940794F6E737
:404FC000002AD046CDF818B09A4611DD21460122484601F053FB4146044601F0A5FB002840F34981BAF1390F00F0078105F1310AB34687F800A07D1C069E099401E504D1EF
:405000001AF0010F01D0ECE4154615F8013C6A1E302BF9D0F5E4039B5C42002C00F0C180DDE91001894B04F00F0203EBC203D3E90023FCF781FC241106460F4600F02B81CE
:40504000834D4FF00208E20709D5D5E9002330463946FCF771FC06460F4608F10108641005F10805EFD175E5089930220A70039A15F8014C01320392FFF7D0BB71684846D2
:4050800001F044F90546336906F10C019A1C92000C30FDF79BFB29460122484601F0EEFA069071E6392BCDF818B0D04600F0A58003F1010AB34687F800A07D1C069E0994D6
:4050C0009FE45A46D046B3469A4616467DE4129B5E4903F1FF3A01EBCA012246D1E900012B46FCF729FCCDE914013946304602F0D1F80446FCF7BAFB0B4602463946304602
:40510000FCF766FA129B0F4608993034012B06460C7001F101051FD0129B089AA84613449B4600224B4B30463946FCF705FC0F46064602F0AFF80446FCF798FB02460B4681
:4051400030463946FCF744FA303408F8014BC34506460F46E5D1554400223F4BDDE91401FCF738FA32463B46FCF758FE00284CD0139B039315F8014CFFF744BB4FF0000855
:405180004646A7E6069B079A9D1A0023FFF770BB0027C9E6169B0B9FC3F13603069DFFF767BBDDE910674FF00208D3E40994A0E5079B002B3FF4BEAE0E9B002B7FF7E2AE1B
:4051C0000022244B30463946FCF7B6FB06460F4608F10100FCF74AFB32463B46FCF7ACFB0022184BFCF7F6F9039A0E9B013A04461392A1F150751293CDE43922B3460994AA
:40520000069E3A707D1CFFF7EEBBDDE9142300201149FCF7DDF932463B46FCF71DFE08B9B0E6154615F8013C6A1E302BF9D031E5139B0393FFF7E6BABAF1000F7FF47BADB4
:4052400061E600BF00001C40000014404874000010750000000024400000E03F392BCDF818B0D046DDF810B09A46C6D0BBF1000F3FF7BCAEBCE67FF4BBAE1AF0010F3FF47C
:40528000B7AEAFE64FF00008464632E5229B022B21DC0E9B04E64FF002085BE4229B022B19DC0E9B63E50024C9F844402146484601F02CF84FF0FF3307930E93012308905D
:4052C0002394C9F840000A93FFF7EFB93FF43CABC0F13C0023E50E9B0793E9E50125FFF7AEB900BFB1F90C302DE9F0419AB20D46110780463CD46A6843F40063002AAB81DD
:4053000073DDAC6A002C4BD09BB203F48052002192B2D8F80060C8F80010002A69D02A6D5F0705D569682B6B521A0BB1EB6BD21A0023E9694046A047441C3CD0B5F90C3002
:40534000296923F400630022AB81DB0485E8060049D4296BC8F8006011B305F14003994202D0404600F062F900202863BDE8F0812E69AEB190072C680CBF6B6900232E6003
:40538000A41BAB600AE0234632466F6AE9694046B8470028A4EB0004064404DD002CF2DC0020BDE8F081AB894FF0FF3043F04003AB81BDE8F081D8F800201D2AF3D81A4BD1
:4053C000D34003F0010383F00104002BEBD0B5F90C30296923F400632960D9046C60AB81B7D5002AB5D12865B3E7EA6B002A88DCD6E70123E9694046A047431C024602D092
:40540000AB89AC6A8CE7D8F80030002BF8D01D2B01D0162B02D1C8F80060C1E7AB8943F04003AB81BDE8F0810100402010B5044682B008B1836B53B1B1F90C0008B902B065
:4054400010BD204602B0BDE81040FFF74BBF019100F080F80199EFE7014900F053BB00BF996F00002DE9F04F074635487D68002407F53B7204230321F863C7F8E412C7F8EE
:40548000E822C7F8E04283B02C606C60AC606C66EC812C616C61AC61AB81214605F15C000822FDF709FADFF89CB0BE68DFF898A0DFF89890DFF8988001230922C5F820B09C
:4054C000C5F824A0C5F82890C5F82C80ED612146F381B28106F15C0034607460B460746634617461B46108220193FDF7E5F9FD6812200222F661C6F820B0C6F824A0C6F859
:405500002890C6F82C802146A881EA812C606C60AC606C662C616C61AC6105F15C000822FDF7CAF9019BED61C5F820B0C5F824A0C5F82890C5F82C80BB6303B0BDE8F08FB3
:4055400059540000316D0000556D0000916D0000B16D0000836B03B17047FFF783BF00BF704700BF704700BF38B5074D074C2C1BA41005D0013C55F8043D9847002CF9D1C2
:40558000BDE8384001F0EABF6C75000068750000F8B50C46224F064600F0B4FEBB685D6825F00305291B01F6EF7121F47F6121F00F01A1F58054B4F5805F07DB00213046F7
:4055C00001F0A4FBBB682B44984204D0304600F09BFE0020F8BD6142304601F097FB01300DD0104BBA6819682D1B45F001053046091B5560196000F087FE0120F8BD0021A8
:40560000304601F083FBBA68831A0F2BDEDD064C0449246843F00103001B53600860D5E76885FF1FC489FF1F7489FF1F002945D02DE9F0410D46804600F064FE55F8047C2F
:405640006A49A5F1080427F00103E2188E685068B24220F0030062D0FE0750600BD455F8087C01F1080EE41BA5683B4475456FD0E768EF60BD6015186D68ED0742D543F0ED
:4056800001026260E350B3F5007F18D2DB0848689D100122013351F8337002FA05F501EBC3022843083AE260A760486041F83340FC604046BDE8F04100F026BE70475A0AC6
:4056C000042A53D89A0902F139077F0002F1380501EB870051F827200838904243494DD0516821F003018B4202D292689042F7D1D068E060A2608460D4604046BDE8F0411D
:4057000000F002BE95683A4F0344BD423FD0D06843F00102E86085606260E350B3E7FF07034407D455F8085C641BE268A0682B44C26090602F4A43F00100126860609342CD
:405740008C60B6D32C4B40461968FFF721FFB0E711184968C90744D491680344D26843F00100CA6091606060E350A2E7142A17D802F15C077F0002F15B05A9E7AA104B6830
:40578000012505FA02F213434B600246B1E743F001024C610C61E560A5606260E35088E7542A06D81A0B02F16F077F0002F16E058EE7B2F5AA7F06D8DA0B02F178077F0029
:4057C00002F1770584E740F25450824206D89A0C02F17D077F0002F17C0579E7FE277E2576E743F001026260E35062E76885FF1F7085FF1F7089FF1FC089FF1F9368002B8C
:4058000000F0AB802DE9F04F8B8985B00C4619070290164628D5226932B303F002081FFA88F0356878B34FF00009C846DFF8D0A2B8F1000F00F08B80D04543464A4628BF25
:405840005346E1690298676AB847002840F3A580B36881441B1AC0EB0808B360002BE7D1002005B0BDE8F08F21460298FEF70AFD002840F03C81A389356803F002081FFAAB
:4058800088F00028CFD113F0010940F090804F460196002F56D09A05D4F808805FD54745C246C0F0BF8013F4906F00F0BD8062692068216902EB4208C1EB000A08EBD878F0
:4058C0000AF101004FEA680838444045424684BF804642465B0540F1F2801146029800F0BBF98346002800F0058152462169FCF76DFFA38923F4906343F08003A381CAEBA4
:4059000008030BEB0A00C4F81480BA46B846C4F810B02060A3605246494600F08FFCA0682368C8EB0000A060384653442360019A814493683F1A1B1A9360002B90D0A389FC
:40594000002FA8D1D5F800906F680835A1E7D5F80090D5F8048008356AE70020704720682369984203D86269974280F08380B84528BFB8464946424600F060FCA3682268B9
:40598000C8EB03034244A3602260002B48D121460298FFF74BFD002842D0B4F90C3043F040034FF0FF30A38105B0BDE8F08F8046824681460190B9F1000F29D0019B002B3D
:4059C0004BD0C845C34628BFCB46206823695F469842626903D9A36813449B455CDC934524DB1346676A5246E1690298B847071ED3DDB8EB070827D0B368BA44DB1BC7EB0F
:405A00000909B360002B3FF42BAFB9F1000FD5D10023D5F800A0D5F8049001930835CAE7404684E7B846BA46206874E75A46514600F004FCA2682368CBEB02025B44B8EBAD
:405A40000708A2602360D7D121460298FFF7EEFC0028A2D1CDF80480CEE74A460A21504600F0A6FB00283DD001300123CAEB00080193A6E76FF00043BB4228BF3B4693FB91
:405A8000F2F3E16902FB03F302984A46666AB04700283FF74CAF80E71A465146039300F0CDFB2268039B21461A4422600298FFF7BDFC039B00287FF470AF1F4699E702983F
:405AC00000F03AFF834600287FF419AF029D21692846FFF7ABFDB4F90C300C2223F080032A605CE7012309F10108019369E74FF0FF30B6E6029A0C231360B4F90C304EE731
:405B000000FCFF7F2DE9F84310F538761ED0884607464FF000097568B468013D10D4A389013D012B08D9B4F90E30013304D021463846C04749EA00096B1C04F16804EED142
:405B40003668002EE7D14846BDE8F883B1464846BDE8F883004870474485FF1F014B1868704700BF6485FF1F004870470C85FF1F70B50E46B1F90E1090B0002914461D460A
:405B800014DB01AA01F0A6FA00280FDB029A4FF4806302F47042A2F50052B2FA82F24FF4006052092A60236010B070BDB289002002F0800292B228601AB14023236010B031
:405BC00070BD10464FF48063236010B070BD00BF8A890B46920706D501F1430201211A601A6159617047F0B583B001AB6A460C460546FFF7BDFF00990646284600F02CF84C
:405C0000B4F90C30D0B19DE80600124F43F08003EF63A3812060206161611AB93343A38103B0F0BD2846B4F90E1001F067FAB4F90C300028F2D043F00103EFE79A05EFD485
:405C400004F1430243F002030121A381226022616161E5E7595400002DE9F04F01F10B05162D83B0064640F2A08035F0070500F1C080A94200F2BD8000F044FBB5F5FC7FF1
:405C8000C0F090826B0A00F0BB80042B00F27781A80900F1390E4FEA4E013830BE4F07EB81014C680839A14207D1AEE0002A80F2AE80E468A14200F0A880636823F00303DC
:405CC0005A1B0F2AF2DDB4493C6901F1080E744500F0A881636823F003035A1B0F2A00F38E81002AC1F814E0C1F810E080F29380B3F5007F80F05C81DB084A684FEAA30924
:405D00004FF0010C013351F833800CFA09F901EBC30C49EA0202ACF1080CC4F80CC0C4F808804A6041F83340C8F80C40831001249C4094427CD8144206D120F003006400AC
:405D4000144200F10400FAD007EBC009CC468046DCF80C108C4507D166E1002A80F27481C9688C4500F060814B6823F003035A1B0F2AF2DD0C46CB6854F808CF45F0010808
:405D8000C1F804800D4442F00101CCF80C303046C3F808C07D613D61C5F80CE0C5F808E06960AA5000F0B0FA1FE0102921D800F0A9FA102506230220774F07EB83035C68BB
:405DC000A3F10802944200F038816368E16823F0030323445A68A56842F00102E96030468D605A6000F090FA0834204603B0BDE8F08F002420460C23336003B0BDE8F08F72
:405E000080214FF0400E3F2048E770465BE723445A68E168DFE723445A68304642F001025A60083400F070FA204603B0BDE8F08FBC68636823F00308A84504D3C5EB080389
:405E40000F2B00F38C80554BDFF860911A68D9F800302A44013304EB080A00F0608102F580520F3222F47F6222F00F0211463046019200F04BFFB0F1FF3F8346019A00F099
:405E80005881824500F2FC80454BDA4519681144196000F05381D9F80000DFF810E101301BBFCAEB0B0A5144CEF800B019601BF0070100F01781C1F10800C1F5805183447D
:405EC00008315A44C2F30B02C2EB010949463046019300F01BFF431C019B00F03F81CBEB00024A4442F001021968BC424944C7F808B01960CBF80420DFF8A49016D0B8F10C
:405F00000F0F40F2FD806268A8F10C0323F0070302F00102E0184FF0050E1A430F2B6260C0F804E0C0F808E000F21C811D4BBC681A68914288BF19601B4B1A68914262687C
:405F400088BF196022F003029542A2EB050301D80F2B04DC304600F0D7F9002445E745F0010243F00103254462603046BD6008346B6000F0C9F9204603B0BDE8F08F142B03
:405F800071D9542B00F2A480280B00F16F0E4FEA4E016E3082E600BF6885FF1FC089FF1FC489FF1FBC89FF1FB889FF1F7489FF1F5A0A042A5ED9142A00F2B38002F15C01DE
:405FC00049005B3207EB810C57F82110ACF1080C8C45DFF8D88100F088804A6822F00302934202D289688C45F7D1D1F80CC07A68C4F80CC0A160CCF80840CC6096E645F03D
:40600000010742F001032544676030464D610D61C5F80CE0C5F808E06B60AA50083400F073F9E2E64A6881E608F1010818F0030F0CF1080C7FF48CAE30E0DC68A34208BFFA
:4060400002303FF440AEC0E60C460B445A68C96854F8085F42F001025A603046E9608D6000F052F9C1E603F15C0E03F15B004FEA4E0113E69A0902F1390149003832A1E72A
:40608000BC424A4B3FF400AF9C68626822F003025AE759F80839994540F0828010F0030F00F1FF30F5D17B6823EA04037B6064009C423FF6BDAE002C3FF4BAAE1C4240464C
:4060C0007FF442AE64001C4200F10400FAD03BE6B3F5AA7F18D8E80B00F1780E4FEA4E017730DBE54FF48051EBE60121D8F80430921001FA02F21A43C8F80420614677E79F
:406100000123CBF8043025E740F25452934220D8A80C00F17D0E4FEA4E017C30BEE51032A4E6542A26D81A0B02F16F0149006E3248E7BC68626822F0030205E7CAF30B00EB
:4061400000287FF4A8AE4244BB6842F001025A60ECE6FE214FF07F0E7E209FE501224FF00009C1E604F108013046FFF75FFAD9F80010DBE6B2F5AA7F05D8DA0B02F1780142
:40618000490077321EE740F254518A4205D89A0C02F17D0149007C3214E7FE217E2211E77B6884E7E808431C5B0005E66885FF1F830770B4CDB23DD0531E02B30278AA42F4
:4061C0001ED0421C04E0D3B10478013BAC4217D012F0030F104602F10102F4D1032B11D853B30278AA420BD00344421C02E00178A94205D09342104602F10102F7D1002012
:4062000070BC704704460E0206F47F462E4346EA0646226820467240A2F1013121EA020212F0803F04F10404DBD1043B032B2046EFD8D5E71346D1E71846E1E78842F0B599
:406240000DD98B1898420AD28118002A51D09A1A13F8014D934201F8014DF9D1F0BD0F2A48D941EA00039B0746D1154600F1100401F1100353F8106C103D44F8106C53F89E
:406280000C6C0F2D44F80C6C53F8086C04F1100444F8186C53F8046C03F1100344F8146CE8D8A2F1100323F00F0302F00F0E1033BEF1030F1944034421D90E4674461D1FEA
:4062C00056F8047B043C032C45F8047FF8D8AEF1040424F0030404342344214402F0030262B1013B0A4411F8014B8A4203F8014FF9D1F0BD0346F3E70346F2E7F0BD7246EB
:40630000EEE700BF704700BF704700BFC26C70B505460C4652B152F824308BB1196842F82410002218461A61DA6070BD2122042100F0F0FDE86402460028ECD1002070BDB4
:40634000012101FA04F6721D2846920000F0E2FD03460028F2D044608660E2E731B1C36C4A6853F82200086043F82210704700BFF0B50C4605460E6983B001F1140E002780
:40638000DEF80000013781B202FB0131000C0B0C02FB003389B201EB0341BE424EF8041B4FEA1343ECDC3BB1A268964207DA04EB8602013653612661204603B0F0BD6168CC
:4063C000284601310193FFF7A1FF0746226904F10C01023292000C30FCF7F8F9EA6C6168019B52F82100206042F821403C46DEE7030C1B04B3B90004102310F07F4F04BF29
:406400000002083310F0704F04BF0001043310F0404F04BF80000233002807DB420003D4202070470023E8E7581C704718467047036813F0070207D0D90720D49A0720D45B
:406440009B0803600220704799B209B91B0C102213F0FF0F04BF1B0A0832190704BF1B090432990704BF9B080232D90704D45B0801D1202070470132036010467047002086
:4064800070475B0803600120704700BF10B50C460121FFF73BFF01224461026110BD00BF2DE9F04F0D69166985B0B5420C46914604DA2A464C46354689461646A36805EB88
:4064C000060861689845C8BF0131FFF71FFF00F1140A0AEB880BDA45019005D25346002143F8041B9B45FBD809F1140909EB860304F11402994502EB850C59D2CDF808B093
:40650000CDF80C809B46904659F8047B1FFA87FEBEF1000F1FD047465646002100E00646304657F8045B3468ABB2A2B20EFB03222D0C240C0EFB0544531804EB13419AB26E
:4065400042EA0142BC454FEA114140F8042BE6D8716059F8047C3F0C22D0DAF80030002255461E464046964600E025462C460288360C07FB026699B206EB0E0241EA0243E8
:4065800044F8043B50F8041B6E68090CB3B207FB0131844501EB12434FEA134EE5D86B60CB450AF1040AAFD8DDF808B0DDF80C80B8F1000F0BDD5BF8043CABF1040B1BB111
:4065C00005E05BF8043D13B9B8F10108F9D10198C0F8108005B0BDE8F08F00BF12F003032DE9F041144607462ED10E46A4101CD0BD6C95B3E3074FF0000806D4641014D0A4
:406600002868A8B10546E307F8D52A4631463846FFF746FFB6B17268FB6C641053F82210316043F822600646EAD13046BDE8F0812A4629463846FFF733FF2860C0F8008010
:406640000546E0E70646D9E70B4A013B52F823200023FFF78DFE0646C8E701213846FFF755FE40F2712101220023416102610546B8640360BEE700BF387500002DE9F84F0F
:406680000B69541104EB03088B6808F101059D420E4691468346496804DD5B009D4201F10101FADC5846FFF731FE002C00F1140237DD02EB8403002142F8041B9342FBD113
:4066C000346906F1140119F01F0901EB840E20D0C9F1200C00240F681A4607FA09FA4AEA040443F8044B51F8044B8E4524FA0CF4F1D854600CB108F10205DBF84C307268BB
:40670000013D53F822100561316043F82260BDE8F88F043B51F8042B8E4543F8042FF9D8EBE71346CCE700BF02690B69D21A12D19B0014301431194410B4034401E0984263
:406740000BD253F8044D51F8042D9442F7D007D3012010BC704710467047002010BC70474FF0FF30F5E700BF2DE9F0470B690C46116990465B1A002B18D1890004F11406CE
:4067800002F114077318394401E09E4269D253F8045D51F8042D9542F7D06BD22346B24644463E4698464FF0010906E066DB04F1140602F1140A4FF000096168FFF7A6FD3F
:4067C0005546D4F810E0D8F810303746C0F80C900AEB830C06EB8E0600F114044FF0000957F8042B55F8041B1FFA82F808EB09031FFA81F8090CC8EB0303C1EB124202EB3E
:4068000023429BB243EA0243AC4544F8043B4FEA2249E5D8BE4218D9A046BC465CF8042B95B205EB09010B1403EB12428BB243EA0243664548F8043B4FEA2249EED8FF43E4
:40684000374427F0030704373C44043C2BB954F8043D0EF1FF3E002BF9D0C0F810E0BDE8F0870021FFF752FD0122002302614361BDE8F087BA464FF000099EE7234604F122
:40688000140A08F1140644464FF00109984694E7F0B5012183B01C46C3F30A551646FFF735FDC4F3130407460DB144F48014019406B302A840F8086DFFF7BAFD002830D166
:4068C0009DE80C007A61002B0CBF01210221BB613961D5B9089A07EB8103A0F2324010601869FFF785FD099BC0EB41101860384603B0F0BD01A8FFF79BFD019B01221146E5
:4069000020303A617B61002DE4D0A5F23343089A03441360099BC0F135001860384603B0F0BD019BC0F12001009A03FA01F10A43C34001937A61C6E72DE9F04F174683B01E
:40694000002900F08F800D46814607F10B04FFF7D9FC55F804EC162C2EF00306A5F108083CD810221446A7423DD8964242DAC64B08EB060099688842416800F0D78021F04F
:40698000010303445B68DB074CD51EF0010F00F09D8039464846FFF75FF9074600283AD055F8043CA0F1080223F0010343449A4200F03E81321F242A00F22B81132A00F204
:4069C000FF8003462A46116819605168596092689A6029464846FEF729FE1CE024F00704002C2246BFDA0C230020C9F8003003B0BDE8F08F2F46331B0F2BD8F804201DD8A9
:406A000002F00102324308EB0601C8F804204B6843F001034B604846FFF776FC384603B0BDE8F08F21F003013144914220DBC36882682F46D3600E469A60DCE702F0010213
:406A400008EB0401144343F00102C8F804400B444A605A68083142F001025A604846FEF7E5FDD8E7114603B0BDE8F04FFFF7F4B81EF0010F8DD155F8083CC3EB080ADAF857
:406A8000043023F0030C01EB0C0E964526DB5746C3688168321FCB60996057F8081FDAF80C30242ACB60996000F2C980132A40F292802B681B2ACAF808306B68CAF80C3023
:406AC00000F2CD8008350AF1100385E055F8083CC3EB080ADAF8043023F0030C06EB0C039342FFF656AF5746DAF80C1057F8080F321F242AC160886000F2AA80132A40F23B
:406B0000A58029681B2ACAF808106968CAF80C1000F2BC8008350AF1100229681E4611606968D0465160AB68936064E721F0030B04F11000B344834557DA1EF0010F7FF465
:406B400028AF55F8081CC1EB080ADAF8041021F0030CE3445845C1DC5746DAF80C1057F8080F321F242AC160886000F2B180132A40F2A28029681B2ACAF808106968CAF818
:406B80000C1000F2AC8008350AF110022968116069685160A9689160C4EB0B020AEB040142F0010299604A60DAF80430484603F001031C43CAF80440FFF7A6FB38462EE723
:406BC0002B681B2A03606B68436026D800F1080305F10802F7E63B462A6876461A606A68D0465A60AA689A6005E7C4EB0B0B08EB04014BF0010299604A6055F8043C484671
:406C000003F001031C4345F8044CFFF77DFB284605E72946FFF712FBDBE6AB68242A8360EB68C36027D000F1100305F11002CAE650F8043C2F4623F003031E44DBE6294661
:406C400038467646D046FFF7F9FAD4E63A4664E7294638461E46D046FFF7F0FACBE6AB68242ACAF81030EB68CAF814301AD010350AF11803B0E72A6900F1180302616969F2
:406C800005F1180241619EE66885FF1FA968242ACAF81010E968CAF814100FD010350AF118023AE72A690AF12003CAF818206A691835CAF81C208FE73A4667E729690AF127
:406CC0002002CAF8181069691835CAF81C1024E7294638460193FFF7B1FA019B5CE7A968242ACAF81010E968CAF8141003D010350AF118024AE729690AF12002CAF8181000
:406D000069691835CAF81C1040E700BF38B5074C0023054608462360F9F7B8FE431C00D038BD2368002BFBD02B6038BD008AFF1F10B50C46B1F90E1000F008FA002803DB97
:406D4000236D0344236510BDA38923F48053A38110BD00BF2DE9F0410C46B1F90C101F46CB051646054607D5B4F90E100223002200F0D6F9B4F90C1021F48051A1813B46E7
:406D80003246B4F90E102846BDE8F04100F05AB810B50C46B1F90E1000F0C2F9A389421C0EBF23F4805343F480532065A38110BDB1F90E1000F0DEB84B6E2DE9F0479C040B
:406DC00092462CD5936812683BB30F46804602F1080919E96000B60817D0043D002401E0A64210D03A4655F8041F404600F060F9431C04F10104F3D10023CAF80830CAF868
:406E00000430BDE8F087DAF80830A3EB8603CAF8083009F10809002BDBD10020ECE7FEF7EDFC0023CAF80830CAF80430BDE8F08793680BB1FFF7C0BF10B41846536010BC38
:406E4000704700BF70B50D46084C114606461A46284600232360F9F785FB431C00D070BD2368002BFBD0336070BD00BF008AFF1F2DE9F047254C064625688846D5F848418A
:406E800092469946C4B360681F2817DC411C76B104EB8003C3F888A0D4F88851012282401543022EC4F88851C3F808911ED0831C6160002044F82380BDE8F087144B03B350
:406EC0004FF4C870AFF300800446D0B1D5F84831002784E888003846C5F848410121C4F88871C4F88C71002EE1D0D1E7D4F88C311A43C4F88C21DAE705F5A674C5F8484174
:406F0000C1E74FF0FF30BDE8F08700BFC07300000000000010B502FB01F1FEF79DFE0446D8B150F8042C22F00302043A242A18D8132A14D900231B2A0360436016D9242A36
:406F40008360C36011BF00F110020361436100F118020023136053609360204610BD0246F7E70021FBF7A8FC204610BD00F10802EFE700BF38B5074C002305460846236097
:406F800000F0C8F9431C00D038BD2368002BFBD02B6038BD008AFF1F00293DD070B505460C4608B1836B7BB3B4F90C300BB9002070BD21462846FEF795F9E36A064633B1B7
:406FC000E169284698470028B8BF4FF0FF36A3891B061CD4216B41B104F14003994202D02846FEF723FB00232363616C21B12846FEF71CFB00236364FEF7B2FA0023A38132
:40700000FEF7B0FA304670BDFEF7A4FACCE721692846FEF70BFBDDE7002070472DE9F04182B006460F461446FEF798FD012832D004F15C033A4601A9304600F0F3F8B0F1A1
:40704000FF3F804620D070B39DF80410002508E023685A1C226019700135454523D201AB595DA368013B002BA360F1DAA269934201DB0A29ECD12246304600F07DF8431C92
:40708000EAD102B0BDE8F081A38943F04003A38102B0BDE8F0817B1EFE2BC9D8F9B280468DF80410D2E7384602B0BDE8F08100BFB2F90C3013F4005F0AD110B4546E43F4AF
:4070C000005344F400545466938110BCFFF7A6BFFFF7A4BF38B50B46074C0546114618460023236000F01EF9431C00D038BD2368002BFBD02B6038BD008AFF1F38B5074C18
:40710000002305460846236000F014F9431C00D038BD2368002BFBD02B6038BD008AFF1F70B50D46084C114606461A4628460023236000F007F9431C00D070BD2368002B61
:40714000FBD0336070BD00BF008AFF1F70B50D46084C114606461A46284600232360F9F717FA431C00D070BD2368002BFBD0336070BD00BF008AFF1FF8B50E46144607468D
:4071800010B1836B002B4AD0B4F90C20A36991B20807A36038D52369002B35D08904F5B215D522686169D31A8B421CDA0133A168501C0139A1602060167062699A421AD03B
:4071C000A389DB0701D50A2D15D02846F8BD616E42F4005221F40051A281226861666169D31A8B42E2DB21463846FEF71FF940B922680123DBE721463846FEF717F900288D
:40720000E3D04FF0FF30F8BD21463846FDF73AF80028F6D1B4F90C20236991B2BEE7FEF799F9B1E72DE9F041054686B01E460C46A1B1104B1746D3F80080FEF78BFC00962D
